{
  "_format": "hh-sol-artifact-1",
  "contractName": "NFTMarketplace",
  "sourceName": "contracts/NFTMarketplace.sol",
  "abi": [
    {
      "inputs": [],
      "stateMutability": "nonpayable",
      "type": "constructor"
    },
    {
      "anonymous": false,
      "inputs": [
        {
          "indexed": true,
          "internalType": "address",
          "name": "owner",
          "type": "address"
        },
        {
          "indexed": true,
          "internalType": "address",
          "name": "approved",
          "type": "address"
        },
        {
          "indexed": true,
          "internalType": "uint256",
          "name": "tokenId",
          "type": "uint256"
        }
      ],
      "name": "Approval",
      "type": "event"
    },
    {
      "anonymous": false,
      "inputs": [
        {
          "indexed": true,
          "internalType": "address",
          "name": "owner",
          "type": "address"
        },
        {
          "indexed": true,
          "internalType": "address",
          "name": "operator",
          "type": "address"
        },
        {
          "indexed": false,
          "internalType": "bool",
          "name": "approved",
          "type": "bool"
        }
      ],
      "name": "ApprovalForAll",
      "type": "event"
    },
    {
      "anonymous": false,
      "inputs": [
        {
          "indexed": false,
          "internalType": "uint256",
          "name": "_fromTokenId",
          "type": "uint256"
        },
        {
          "indexed": false,
          "internalType": "uint256",
          "name": "_toTokenId",
          "type": "uint256"
        }
      ],
      "name": "BatchMetadataUpdate",
      "type": "event"
    },
    {
      "anonymous": false,
      "inputs": [
        {
          "indexed": false,
          "internalType": "uint256",
          "name": "_tokenId",
          "type": "uint256"
        }
      ],
      "name": "MetadataUpdate",
      "type": "event"
    },
    {
      "anonymous": false,
      "inputs": [
        {
          "indexed": true,
          "internalType": "address",
          "name": "from",
          "type": "address"
        },
        {
          "indexed": true,
          "internalType": "address",
          "name": "to",
          "type": "address"
        },
        {
          "indexed": true,
          "internalType": "uint256",
          "name": "tokenId",
          "type": "uint256"
        }
      ],
      "name": "Transfer",
      "type": "event"
    },
    {
      "anonymous": false,
      "inputs": [
        {
          "indexed": true,
          "internalType": "uint256",
          "name": "tokenId",
          "type": "uint256"
        },
        {
          "indexed": false,
          "internalType": "address",
          "name": "seller",
          "type": "address"
        },
        {
          "indexed": false,
          "internalType": "address",
          "name": "owner",
          "type": "address"
        },
        {
          "indexed": false,
          "internalType": "uint256",
          "name": "price",
          "type": "uint256"
        },
        {
          "indexed": false,
          "internalType": "bool",
          "name": "sold",
          "type": "bool"
        }
      ],
      "name": "idMarketItemCreated",
      "type": "event"
    },
    {
      "inputs": [
        {
          "internalType": "address",
          "name": "to",
          "type": "address"
        },
        {
          "internalType": "uint256",
          "name": "tokenId",
          "type": "uint256"
        }
      ],
      "name": "approve",
      "outputs": [],
      "stateMutability": "nonpayable",
      "type": "function"
    },
    {
      "inputs": [
        {
          "internalType": "address",
          "name": "owner",
          "type": "address"
        }
      ],
      "name": "balanceOf",
      "outputs": [
        {
          "internalType": "uint256",
          "name": "",
          "type": "uint256"
        }
      ],
      "stateMutability": "view",
      "type": "function"
    },
    {
      "inputs": [
        {
          "internalType": "uint256",
          "name": "tokenId",
          "type": "uint256"
        }
      ],
      "name": "createMarketSale",
      "outputs": [],
      "stateMutability": "payable",
      "type": "function"
    },
    {
      "inputs": [
        {
          "internalType": "string",
          "name": "tokenURI",
          "type": "string"
        },
        {
          "internalType": "uint256",
          "name": "price",
          "type": "uint256"
        }
      ],
      "name": "createToken",
      "outputs": [
        {
          "internalType": "uint256",
          "name": "",
          "type": "uint256"
        }
      ],
      "stateMutability": "payable",
      "type": "function"
    },
    {
      "inputs": [],
      "name": "fetchListedItems",
      "outputs": [
        {
          "components": [
            {
              "internalType": "uint256",
              "name": "tokenId",
              "type": "uint256"
            },
            {
              "internalType": "address payable",
              "name": "seller",
              "type": "address"
            },
            {
              "internalType": "address payable",
              "name": "owner",
              "type": "address"
            },
            {
              "internalType": "uint256",
              "name": "price",
              "type": "uint256"
            },
            {
              "internalType": "bool",
              "name": "sold",
              "type": "bool"
            }
          ],
          "internalType": "struct NFTMarketplace.MarketItem[]",
          "name": "",
          "type": "tuple[]"
        }
      ],
      "stateMutability": "view",
      "type": "function"
    },
    {
      "inputs": [],
      "name": "fetchMarketItem",
      "outputs": [
        {
          "components": [
            {
              "internalType": "uint256",
              "name": "tokenId",
              "type": "uint256"
            },
            {
              "internalType": "address payable",
              "name": "seller",
              "type": "address"
            },
            {
              "internalType": "address payable",
              "name": "owner",
              "type": "address"
            },
            {
              "internalType": "uint256",
              "name": "price",
              "type": "uint256"
            },
            {
              "internalType": "bool",
              "name": "sold",
              "type": "bool"
            }
          ],
          "internalType": "struct NFTMarketplace.MarketItem[]",
          "name": "",
          "type": "tuple[]"
        }
      ],
      "stateMutability": "view",
      "type": "function"
    },
    {
      "inputs": [],
      "name": "fetchMyNFT",
      "outputs": [
        {
          "components": [
            {
              "internalType": "uint256",
              "name": "tokenId",
              "type": "uint256"
            },
            {
              "internalType": "address payable",
              "name": "seller",
              "type": "address"
            },
            {
              "internalType": "address payable",
              "name": "owner",
              "type": "address"
            },
            {
              "internalType": "uint256",
              "name": "price",
              "type": "uint256"
            },
            {
              "internalType": "bool",
              "name": "sold",
              "type": "bool"
            }
          ],
          "internalType": "struct NFTMarketplace.MarketItem[]",
          "name": "",
          "type": "tuple[]"
        }
      ],
      "stateMutability": "view",
      "type": "function"
    },
    {
      "inputs": [
        {
          "internalType": "uint256",
          "name": "tokenId",
          "type": "uint256"
        }
      ],
      "name": "getApproved",
      "outputs": [
        {
          "internalType": "address",
          "name": "",
          "type": "address"
        }
      ],
      "stateMutability": "view",
      "type": "function"
    },
    {
      "inputs": [],
      "name": "getListingPrice",
      "outputs": [
        {
          "internalType": "uint256",
          "name": "",
          "type": "uint256"
        }
      ],
      "stateMutability": "view",
      "type": "function"
    },
    {
      "inputs": [
        {
          "internalType": "address",
          "name": "owner",
          "type": "address"
        },
        {
          "internalType": "address",
          "name": "operator",
          "type": "address"
        }
      ],
      "name": "isApprovedForAll",
      "outputs": [
        {
          "internalType": "bool",
          "name": "",
          "type": "bool"
        }
      ],
      "stateMutability": "view",
      "type": "function"
    },
    {
      "inputs": [],
      "name": "name",
      "outputs": [
        {
          "internalType": "string",
          "name": "",
          "type": "string"
        }
      ],
      "stateMutability": "view",
      "type": "function"
    },
    {
      "inputs": [
        {
          "internalType": "uint256",
          "name": "tokenId",
          "type": "uint256"
        }
      ],
      "name": "ownerOf",
      "outputs": [
        {
          "internalType": "address",
          "name": "",
          "type": "address"
        }
      ],
      "stateMutability": "view",
      "type": "function"
    },
    {
      "inputs": [
        {
          "internalType": "uint256",
          "name": "tokenId",
          "type": "uint256"
        },
        {
          "internalType": "uint256",
          "name": "price",
          "type": "uint256"
        }
      ],
      "name": "reSellToken",
      "outputs": [],
      "stateMutability": "payable",
      "type": "function"
    },
    {
      "inputs": [
        {
          "internalType": "address",
          "name": "from",
          "type": "address"
        },
        {
          "internalType": "address",
          "name": "to",
          "type": "address"
        },
        {
          "internalType": "uint256",
          "name": "tokenId",
          "type": "uint256"
        }
      ],
      "name": "safeTransferFrom",
      "outputs": [],
      "stateMutability": "nonpayable",
      "type": "function"
    },
    {
      "inputs": [
        {
          "internalType": "address",
          "name": "from",
          "type": "address"
        },
        {
          "internalType": "address",
          "name": "to",
          "type": "address"
        },
        {
          "internalType": "uint256",
          "name": "tokenId",
          "type": "uint256"
        },
        {
          "internalType": "bytes",
          "name": "data",
          "type": "bytes"
        }
      ],
      "name": "safeTransferFrom",
      "outputs": [],
      "stateMutability": "nonpayable",
      "type": "function"
    },
    {
      "inputs": [
        {
          "internalType": "address",
          "name": "operator",
          "type": "address"
        },
        {
          "internalType": "bool",
          "name": "approved",
          "type": "bool"
        }
      ],
      "name": "setApprovalForAll",
      "outputs": [],
      "stateMutability": "nonpayable",
      "type": "function"
    },
    {
      "inputs": [
        {
          "internalType": "bytes4",
          "name": "interfaceId",
          "type": "bytes4"
        }
      ],
      "name": "supportsInterface",
      "outputs": [
        {
          "internalType": "bool",
          "name": "",
          "type": "bool"
        }
      ],
      "stateMutability": "view",
      "type": "function"
    },
    {
      "inputs": [],
      "name": "symbol",
      "outputs": [
        {
          "internalType": "string",
          "name": "",
          "type": "string"
        }
      ],
      "stateMutability": "view",
      "type": "function"
    },
    {
      "inputs": [
        {
          "internalType": "uint256",
          "name": "tokenId",
          "type": "uint256"
        }
      ],
      "name": "tokenURI",
      "outputs": [
        {
          "internalType": "string",
          "name": "",
          "type": "string"
        }
      ],
      "stateMutability": "view",
      "type": "function"
    },
    {
      "inputs": [
        {
          "internalType": "address",
          "name": "from",
          "type": "address"
        },
        {
          "internalType": "address",
          "name": "to",
          "type": "address"
        },
        {
          "internalType": "uint256",
          "name": "tokenId",
          "type": "uint256"
        }
      ],
      "name": "transferFrom",
      "outputs": [],
      "stateMutability": "nonpayable",
      "type": "function"
    },
    {
      "inputs": [
        {
          "internalType": "uint256",
          "name": "_listingPrice",
          "type": "uint256"
        }
      ],
      "name": "updatelistingPrice",
      "outputs": [],
      "stateMutability": "payable",
      "type": "function"
    }
  ],
  "bytecode": "0x6080604052655af3107a400060095534801561001a57600080fd5b506040518060400160405280601381526020017f4e656f2d42415a4152204e465420546f6b656e000000000000000000000000008152506040518060400160405280600381526020017f4e454f00000000000000000000000000000000000000000000000000000000008152508160009081610096919061033f565b5080600190816100a6919061033f565b50505033600a60006101000a81548173ffffffffffffffffffffffffffffffffffffffff021916908373ffffffffffffffffffffffffffffffffffffffff160217905550610411565b600081519050919050565b7f4e487b7100000000000000000000000000000000000000000000000000000000600052604160045260246000fd5b7f4e487b7100000000000000000000000000000000000000000000000000000000600052602260045260246000fd5b6000600282049050600182168061017057607f821691505b60208210810361018357610182610129565b5b50919050565b60008190508160005260206000209050919050565b60006020601f8301049050919050565b600082821b905092915050565b6000600883026101eb7fffffffffffffffffffffffffffffffffffffffffffffffffffffffffffffffff826101ae565b6101f586836101ae565b95508019841693508086168417925050509392505050565b6000819050919050565b6000819050919050565b600061023c6102376102328461020d565b610217565b61020d565b9050919050565b6000819050919050565b61025683610221565b61026a61026282610243565b8484546101bb565b825550505050565b600090565b61027f610272565b61028a81848461024d565b505050565b5b818110156102ae576102a3600082610277565b600181019050610290565b5050565b601f8211156102f3576102c481610189565b6102cd8461019e565b810160208510156102dc578190505b6102f06102e88561019e565b83018261028f565b50505b505050565b600082821c905092915050565b6000610316600019846008026102f8565b1980831691505092915050565b600061032f8383610305565b9150826002028217905092915050565b610348826100ef565b67ffffffffffffffff811115610361576103606100fa565b5b61036b8254610158565b6103768282856102b2565b600060209050601f8311600181146103a95760008415610397578287015190505b6103a18582610323565b865550610409565b601f1984166103b786610189565b60005b828110156103df578489015182556001820191506020850194506020810190506103ba565b868310156103fc57848901516103f8601f891682610305565b8355505b6001600288020188555050505b505050505050565b6142a8806104206000396000f3fe60806040526004361061012a5760003560e01c806385535b25116100ab578063be9af5361161006f578063be9af536146103e8578063c18763f714610404578063c793a24f1461042f578063c87b56dd1461044b578063cfd31e2c14610488578063e985e9c5146104b35761012a565b806385535b25146103245780638fafd0211461034057806395d89b411461036b578063a22cb46514610396578063b88d4fde146103bf5761012a565b806323b872dd116100f257806323b872dd1461022857806342842e0e146102515780636352211e1461027a57806370a08231146102b757806372b3b620146102f45761012a565b806301ffc9a71461012f57806306fdde031461016c578063081812fc14610197578063095ea7b3146101d457806312e85585146101fd575b600080fd5b34801561013b57600080fd5b5061015660048036038101906101519190612b6c565b6104f0565b6040516101639190612bb4565b60405180910390f35b34801561017857600080fd5b50610181610551565b60405161018e9190612c5f565b60405180910390f35b3480156101a357600080fd5b506101be60048036038101906101b99190612cb7565b6105e3565b6040516101cb9190612d25565b60405180910390f35b3480156101e057600080fd5b506101fb60048036038101906101f69190612d6c565b610629565b005b34801561020957600080fd5b50610212610740565b60405161021f9190612dbb565b60405180910390f35b34801561023457600080fd5b5061024f600480360381019061024a9190612dd6565b61074a565b005b34801561025d57600080fd5b5061027860048036038101906102739190612dd6565b6107aa565b005b34801561028657600080fd5b506102a1600480360381019061029c9190612cb7565b6107ca565b6040516102ae9190612d25565b60405180910390f35b3480156102c357600080fd5b506102de60048036038101906102d99190612e29565b610850565b6040516102eb9190612dbb565b60405180910390f35b61030e60048036038101906103099190612f8b565b610907565b60405161031b9190612dbb565b60405180910390f35b61033e60048036038101906103399190612fe7565b610949565b005b34801561034c57600080fd5b50610355610b3e565b604051610362919061317d565b60405180910390f35b34801561037757600080fd5b50610380610d9f565b60405161038d9190612c5f565b60405180910390f35b3480156103a257600080fd5b506103bd60048036038101906103b891906131cb565b610e31565b005b3480156103cb57600080fd5b506103e660048036038101906103e191906132ac565b610e47565b005b61040260048036038101906103fd9190612cb7565b610ea9565b005b34801561041057600080fd5b506104196110e1565b604051610426919061317d565b60405180910390f35b61044960048036038101906104449190612cb7565b6113bf565b005b34801561045757600080fd5b50610472600480360381019061046d9190612cb7565b611459565b60405161047f9190612c5f565b60405180910390f35b34801561049457600080fd5b5061049d61156b565b6040516104aa919061317d565b60405180910390f35b3480156104bf57600080fd5b506104da60048036038101906104d5919061332f565b611849565b6040516104e79190612bb4565b60405180910390f35b6000634906490660e01b7bffffffffffffffffffffffffffffffffffffffffffffffffffffffff1916827bffffffffffffffffffffffffffffffffffffffffffffffffffffffff1916148061054a5750610549826118dd565b5b9050919050565b6060600080546105609061339e565b80601f016020809104026020016040519081016040528092919081815260200182805461058c9061339e565b80156105d95780601f106105ae576101008083540402835291602001916105d9565b820191906000526020600020905b8154815290600101906020018083116105bc57829003601f168201915b5050505050905090565b60006105ee826119bf565b6004600083815260200190815260200160002060009054906101000a900473ffffffffffffffffffffffffffffffffffffffff169050919050565b6000610634826107ca565b90508073ffffffffffffffffffffffffffffffffffffffff168373ffffffffffffffffffffffffffffffffffffffff16036106a4576040517f08c379a000000000000000000000000000000000000000000000000000000000815260040161069b90613441565b60405180910390fd5b8073ffffffffffffffffffffffffffffffffffffffff166106c3611a0a565b73ffffffffffffffffffffffffffffffffffffffff1614806106f257506106f1816106ec611a0a565b611849565b5b610731576040517f08c379a0000000000000000000000000000000000000000000000000000000008152600401610728906134d3565b60405180910390fd5b61073b8383611a12565b505050565b6000600954905090565b61075b610755611a0a565b82611acb565b61079a576040517f08c379a000000000000000000000000000000000000000000000000000000000815260040161079190613565565b60405180910390fd5b6107a5838383611b60565b505050565b6107c583838360405180602001604052806000815250610e47565b505050565b6000806107d683611e59565b9050600073ffffffffffffffffffffffffffffffffffffffff168173ffffffffffffffffffffffffffffffffffffffff1603610847576040517f08c379a000000000000000000000000000000000000000000000000000000000815260040161083e906135d1565b60405180910390fd5b80915050919050565b60008073ffffffffffffffffffffffffffffffffffffffff168273ffffffffffffffffffffffffffffffffffffffff16036108c0576040517f08c379a00000000000000000000000000000000000000000000000000000000081526004016108b790613663565b60405180910390fd5b600360008373ffffffffffffffffffffffffffffffffffffffff1673ffffffffffffffffffffffffffffffffffffffff168152602001908152602001600020549050919050565b60006109136007611e96565b600061091f6007611eac565b905061092b3382611eba565b61093581856120d7565b61093f818461217b565b8091505092915050565b3373ffffffffffffffffffffffffffffffffffffffff16600b600084815260200190815260200160002060020160009054906101000a900473ffffffffffffffffffffffffffffffffffffffff1673ffffffffffffffffffffffffffffffffffffffff16146109ed576040517f08c379a00000000000000000000000000000000000000000000000000000000081526004016109e4906136f5565b60405180910390fd5b6009543414610a31576040517f08c379a0000000000000000000000000000000000000000000000000000000008152600401610a2890613787565b60405180910390fd5b6000600b600084815260200190815260200160002060040160006101000a81548160ff02191690831515021790555080600b60008481526020019081526020016000206003018190555033600b600084815260200190815260200160002060010160006101000a81548173ffffffffffffffffffffffffffffffffffffffff021916908373ffffffffffffffffffffffffffffffffffffffff16021790555030600b600084815260200190815260200160002060020160006101000a81548173ffffffffffffffffffffffffffffffffffffffff021916908373ffffffffffffffffffffffffffffffffffffffff160217905550610b2f600861237e565b610b3a333084611b60565b5050565b60606000610b4c6007611eac565b90506000610b5a6008611eac565b610b646007611eac565b610b6e91906137d6565b90506000808267ffffffffffffffff811115610b8d57610b8c612e60565b5b604051908082528060200260200182016040528015610bc657816020015b610bb3612aa3565b815260200190600190039081610bab5790505b50905060005b84811015610d94573073ffffffffffffffffffffffffffffffffffffffff16600b6000600184610bfc919061380a565b815260200190815260200160002060020160009054906101000a900473ffffffffffffffffffffffffffffffffffffffff1673ffffffffffffffffffffffffffffffffffffffff1603610d87576000600182610c58919061380a565b90506000600b60008381526020019081526020016000209050806040518060a0016040529081600082015481526020016001820160009054906101000a900473ffffffffffffffffffffffffffffffffffffffff1673ffffffffffffffffffffffffffffffffffffffff1673ffffffffffffffffffffffffffffffffffffffff1681526020016002820160009054906101000a900473ffffffffffffffffffffffffffffffffffffffff1673ffffffffffffffffffffffffffffffffffffffff1673ffffffffffffffffffffffffffffffffffffffff168152602001600382015481526020016004820160009054906101000a900460ff161515151581525050848681518110610d6b57610d6a61383e565b5b60200260200101819052508480610d819061386d565b95505050505b8080600101915050610bcc565b508094505050505090565b606060018054610dae9061339e565b80601f0160208091040260200160405190810160405280929190818152602001828054610dda9061339e565b8015610e275780601f10610dfc57610100808354040283529160200191610e27565b820191906000526020600020905b815481529060010190602001808311610e0a57829003601f168201915b5050505050905090565b610e43610e3c611a0a565b83836123da565b5050565b610e58610e52611a0a565b83611acb565b610e97576040517f08c379a0000000000000000000000000000000000000000000000000000000008152600401610e8e90613565565b60405180910390fd5b610ea384848484612546565b50505050565b6000600b6000838152602001908152602001600020600301549050803414610f06576040517f08c379a0000000000000000000000000000000000000000000000000000000008152600401610efd90613927565b60405180910390fd5b33600b600084815260200190815260200160002060020160006101000a81548173ffffffffffffffffffffffffffffffffffffffff021916908373ffffffffffffffffffffffffffffffffffffffff1602179055506001600b600084815260200190815260200160002060040160006101000a81548160ff0219169083151502179055506000600b600084815260200190815260200160002060020160006101000a81548173ffffffffffffffffffffffffffffffffffffffff021916908373ffffffffffffffffffffffffffffffffffffffff160217905550610fea6008611e96565b610ff5303384611b60565b600a60009054906101000a900473ffffffffffffffffffffffffffffffffffffffff1673ffffffffffffffffffffffffffffffffffffffff166108fc6009549081150290604051600060405180830381858888f1935050505015801561105f573d6000803e3d6000fd5b50600b600083815260200190815260200160002060010160009054906101000a900473ffffffffffffffffffffffffffffffffffffffff1673ffffffffffffffffffffffffffffffffffffffff166108fc349081150290604051600060405180830381858888f193505050501580156110dc573d6000803e3d6000fd5b505050565b606060006110ef6007611eac565b905060008060005b83811015611190573373ffffffffffffffffffffffffffffffffffffffff16600b6000600184611127919061380a565b815260200190815260200160002060020160009054906101000a900473ffffffffffffffffffffffffffffffffffffffff1673ffffffffffffffffffffffffffffffffffffffff160361118357828061117f9061386d565b9350505b80806001019150506110f7565b5060008267ffffffffffffffff8111156111ad576111ac612e60565b5b6040519080825280602002602001820160405280156111e657816020015b6111d3612aa3565b8152602001906001900390816111cb5790505b50905060005b848110156113b4573373ffffffffffffffffffffffffffffffffffffffff16600b600060018461121c919061380a565b815260200190815260200160002060020160009054906101000a900473ffffffffffffffffffffffffffffffffffffffff1673ffffffffffffffffffffffffffffffffffffffff16036113a7576000600182611278919061380a565b90506000600b60008381526020019081526020016000209050806040518060a0016040529081600082015481526020016001820160009054906101000a900473ffffffffffffffffffffffffffffffffffffffff1673ffffffffffffffffffffffffffffffffffffffff1673ffffffffffffffffffffffffffffffffffffffff1681526020016002820160009054906101000a900473ffffffffffffffffffffffffffffffffffffffff1673ffffffffffffffffffffffffffffffffffffffff1673ffffffffffffffffffffffffffffffffffffffff168152602001600382015481526020016004820160009054906101000a900460ff16151515158152505084868151811061138b5761138a61383e565b5b602002602001018190525084806113a19061386d565b95505050505b80806001019150506111ec565b508094505050505090565b600a60009054906101000a900473ffffffffffffffffffffffffffffffffffffffff1673ffffffffffffffffffffffffffffffffffffffff163373ffffffffffffffffffffffffffffffffffffffff161461144f576040517f08c379a0000000000000000000000000000000000000000000000000000000008152600401611446906139b9565b60405180910390fd5b8060098190555050565b6060611464826119bf565b60006006600084815260200190815260200160002080546114849061339e565b80601f01602080910402602001604051908101604052809291908181526020018280546114b09061339e565b80156114fd5780601f106114d2576101008083540402835291602001916114fd565b820191906000526020600020905b8154815290600101906020018083116114e057829003601f168201915b50505050509050600061150e6125a2565b90506000815103611523578192505050611566565b600082511115611558578082604051602001611540929190613a15565b60405160208183030381529060405292505050611566565b611561846125b9565b925050505b919050565b606060006115796007611eac565b905060008060005b8381101561161a573373ffffffffffffffffffffffffffffffffffffffff16600b60006001846115b1919061380a565b815260200190815260200160002060010160009054906101000a900473ffffffffffffffffffffffffffffffffffffffff1673ffffffffffffffffffffffffffffffffffffffff160361160d5782806116099061386d565b9350505b8080600101915050611581565b5060008267ffffffffffffffff81111561163757611636612e60565b5b60405190808252806020026020018201604052801561167057816020015b61165d612aa3565b8152602001906001900390816116555790505b50905060005b8481101561183e573373ffffffffffffffffffffffffffffffffffffffff16600b60006001846116a6919061380a565b815260200190815260200160002060010160009054906101000a900473ffffffffffffffffffffffffffffffffffffffff1673ffffffffffffffffffffffffffffffffffffffff1603611831576000600182611702919061380a565b90506000600b60008381526020019081526020016000209050806040518060a0016040529081600082015481526020016001820160009054906101000a900473ffffffffffffffffffffffffffffffffffffffff1673ffffffffffffffffffffffffffffffffffffffff1673ffffffffffffffffffffffffffffffffffffffff1681526020016002820160009054906101000a900473ffffffffffffffffffffffffffffffffffffffff1673ffffffffffffffffffffffffffffffffffffffff1673ffffffffffffffffffffffffffffffffffffffff168152602001600382015481526020016004820160009054906101000a900460ff1615151515815250508486815181106118155761181461383e565b5b6020026020010181905250848061182b9061386d565b95505050505b8080600101915050611676565b508094505050505090565b6000600560008473ffffffffffffffffffffffffffffffffffffffff1673ffffffffffffffffffffffffffffffffffffffff16815260200190815260200160002060008373ffffffffffffffffffffffffffffffffffffffff1673ffffffffffffffffffffffffffffffffffffffff16815260200190815260200160002060009054906101000a900460ff16905092915050565b60007f80ac58cd000000000000000000000000000000000000000000000000000000007bffffffffffffffffffffffffffffffffffffffffffffffffffffffff1916827bffffffffffffffffffffffffffffffffffffffffffffffffffffffff191614806119a857507f5b5e139f000000000000000000000000000000000000000000000000000000007bffffffffffffffffffffffffffffffffffffffffffffffffffffffff1916827bffffffffffffffffffffffffffffffffffffffffffffffffffffffff1916145b806119b857506119b782612621565b5b9050919050565b6119c88161268b565b611a07576040517f08c379a00000000000000000000000000000000000000000000000000000000081526004016119fe906135d1565b60405180910390fd5b50565b600033905090565b816004600083815260200190815260200160002060006101000a81548173ffffffffffffffffffffffffffffffffffffffff021916908373ffffffffffffffffffffffffffffffffffffffff160217905550808273ffffffffffffffffffffffffffffffffffffffff16611a85836107ca565b73ffffffffffffffffffffffffffffffffffffffff167f8c5be1e5ebec7d5bd14f71427d1e84f3dd0314c0f7b2291e5b200ac8c7c3b92560405160405180910390a45050565b600080611ad7836107ca565b90508073ffffffffffffffffffffffffffffffffffffffff168473ffffffffffffffffffffffffffffffffffffffff161480611b195750611b188185611849565b5b80611b5757508373ffffffffffffffffffffffffffffffffffffffff16611b3f846105e3565b73ffffffffffffffffffffffffffffffffffffffff16145b91505092915050565b8273ffffffffffffffffffffffffffffffffffffffff16611b80826107ca565b73ffffffffffffffffffffffffffffffffffffffff1614611bd6576040517f08c379a0000000000000000000000000000000000000000000000000000000008152600401611bcd90613aab565b60405180910390fd5b600073ffffffffffffffffffffffffffffffffffffffff168273ffffffffffffffffffffffffffffffffffffffff1603611c45576040517f08c379a0000000000000000000000000000000000000000000000000000000008152600401611c3c90613b3d565b60405180910390fd5b611c5283838360016126cc565b8273ffffffffffffffffffffffffffffffffffffffff16611c72826107ca565b73ffffffffffffffffffffffffffffffffffffffff1614611cc8576040517f08c379a0000000000000000000000000000000000000000000000000000000008152600401611cbf90613aab565b60405180910390fd5b6004600082815260200190815260200160002060006101000a81549073ffffffffffffffffffffffffffffffffffffffff02191690556001600360008573ffffffffffffffffffffffffffffffffffffffff1673ffffffffffffffffffffffffffffffffffffffff168152602001908152602001600020600082825403925050819055506001600360008473ffffffffffffffffffffffffffffffffffffffff1673ffffffffffffffffffffffffffffffffffffffff16815260200190815260200160002060008282540192505081905550816002600083815260200190815260200160002060006101000a81548173ffffffffffffffffffffffffffffffffffffffff021916908373ffffffffffffffffffffffffffffffffffffffff160217905550808273ffffffffffffffffffffffffffffffffffffffff168473ffffffffffffffffffffffffffffffffffffffff167fddf252ad1be2c89b69c2b068fc378daa952ba7f163c4a11628f55a4df523b3ef60405160405180910390a4611e5483838360016126d2565b505050565b60006002600083815260200190815260200160002060009054906101000a900473ffffffffffffffffffffffffffffffffffffffff169050919050565b6001816000016000828254019250508190555050565b600081600001549050919050565b600073ffffffffffffffffffffffffffffffffffffffff168273ffffffffffffffffffffffffffffffffffffffff1603611f29576040517f08c379a0000000000000000000000000000000000000000000000000000000008152600401611f2090613ba9565b60405180910390fd5b611f328161268b565b15611f72576040517f08c379a0000000000000000000000000000000000000000000000000000000008152600401611f6990613c15565b60405180910390fd5b611f806000838360016126cc565b611f898161268b565b15611fc9576040517f08c379a0000000000000000000000000000000000000000000000000000000008152600401611fc090613c15565b60405180910390fd5b6001600360008473ffffffffffffffffffffffffffffffffffffffff1673ffffffffffffffffffffffffffffffffffffffff16815260200190815260200160002060008282540192505081905550816002600083815260200190815260200160002060006101000a81548173ffffffffffffffffffffffffffffffffffffffff021916908373ffffffffffffffffffffffffffffffffffffffff160217905550808273ffffffffffffffffffffffffffffffffffffffff16600073ffffffffffffffffffffffffffffffffffffffff167fddf252ad1be2c89b69c2b068fc378daa952ba7f163c4a11628f55a4df523b3ef60405160405180910390a46120d36000838360016126d2565b5050565b6120e08261268b565b61211f576040517f08c379a000000000000000000000000000000000000000000000000000000000815260040161211690613ca7565b60405180910390fd5b8060066000848152602001908152602001600020908161213f9190613e73565b507ff8e1a15aba9398e019f0b49df1a4fde98ee17ae345cb5f6b5e2c27f5033e8ce78260405161216f9190612dbb565b60405180910390a15050565b600081116121be576040517f08c379a00000000000000000000000000000000000000000000000000000000081526004016121b590613f91565b60405180910390fd5b6009543414612202576040517f08c379a00000000000000000000000000000000000000000000000000000000081526004016121f990613787565b60405180910390fd5b6040518060a001604052808381526020013373ffffffffffffffffffffffffffffffffffffffff1681526020013073ffffffffffffffffffffffffffffffffffffffff16815260200182815260200160001515815250600b60008481526020019081526020016000206000820151816000015560208201518160010160006101000a81548173ffffffffffffffffffffffffffffffffffffffff021916908373ffffffffffffffffffffffffffffffffffffffff16021790555060408201518160020160006101000a81548173ffffffffffffffffffffffffffffffffffffffff021916908373ffffffffffffffffffffffffffffffffffffffff1602179055506060820151816003015560808201518160040160006101000a81548160ff02191690831515021790555090505061233b333084611b60565b817fdebdb32cb5230ab727c9c361b16fdb2015df225c10e6a3e7f60ecd5dc5be451633308460006040516123729493929190613fb1565b60405180910390a25050565b600081600001549050600081116123ca576040517f08c379a00000000000000000000000000000000000000000000000000000000081526004016123c190614042565b60405180910390fd5b6001810382600001819055505050565b8173ffffffffffffffffffffffffffffffffffffffff168373ffffffffffffffffffffffffffffffffffffffff1603612448576040517f08c379a000000000000000000000000000000000000000000000000000000000815260040161243f906140ae565b60405180910390fd5b80600560008573ffffffffffffffffffffffffffffffffffffffff1673ffffffffffffffffffffffffffffffffffffffff16815260200190815260200160002060008473ffffffffffffffffffffffffffffffffffffffff1673ffffffffffffffffffffffffffffffffffffffff16815260200190815260200160002060006101000a81548160ff0219169083151502179055508173ffffffffffffffffffffffffffffffffffffffff168373ffffffffffffffffffffffffffffffffffffffff167f17307eab39ab6107e8899845ad3d59bd9653f200f220920489ca2b5937696c31836040516125399190612bb4565b60405180910390a3505050565b612551848484611b60565b61255d848484846126d8565b61259c576040517f08c379a000000000000000000000000000000000000000000000000000000000815260040161259390614140565b60405180910390fd5b50505050565b606060405180602001604052806000815250905090565b60606125c4826119bf565b60006125ce6125a2565b905060008151116125ee5760405180602001604052806000815250612619565b806125f88461285f565b604051602001612609929190613a15565b6040516020818303038152906040525b915050919050565b60007f01ffc9a7000000000000000000000000000000000000000000000000000000007bffffffffffffffffffffffffffffffffffffffffffffffffffffffff1916827bffffffffffffffffffffffffffffffffffffffffffffffffffffffff1916149050919050565b60008073ffffffffffffffffffffffffffffffffffffffff166126ad83611e59565b73ffffffffffffffffffffffffffffffffffffffff1614159050919050565b50505050565b50505050565b60006126f98473ffffffffffffffffffffffffffffffffffffffff1661292d565b15612852578373ffffffffffffffffffffffffffffffffffffffff1663150b7a02612722611a0a565b8786866040518563ffffffff1660e01b815260040161274494939291906141b5565b6020604051808303816000875af192505050801561278057506040513d601f19601f8201168201806040525081019061277d9190614216565b60015b612802573d80600081146127b0576040519150601f19603f3d011682016040523d82523d6000602084013e6127b5565b606091505b5060008151036127fa576040517f08c379a00000000000000000000000000000000000000000000000000000000081526004016127f190614140565b60405180910390fd5b805181602001fd5b63150b7a0260e01b7bffffffffffffffffffffffffffffffffffffffffffffffffffffffff1916817bffffffffffffffffffffffffffffffffffffffffffffffffffffffff191614915050612857565b600190505b949350505050565b60606000600161286e84612950565b01905060008167ffffffffffffffff81111561288d5761288c612e60565b5b6040519080825280601f01601f1916602001820160405280156128bf5781602001600182028036833780820191505090505b509050600082602001820190505b600115612922578080600190039150507f3031323334353637383961626364656600000000000000000000000000000000600a86061a8153600a858161291657612915614243565b5b049450600085036128cd575b819350505050919050565b6000808273ffffffffffffffffffffffffffffffffffffffff163b119050919050565b600080600090507a184f03e93ff9f4daa797ed6e38ed64bf6a1f01000000000000000083106129ae577a184f03e93ff9f4daa797ed6e38ed64bf6a1f01000000000000000083816129a4576129a3614243565b5b0492506040810190505b6d04ee2d6d415b85acef810000000083106129eb576d04ee2d6d415b85acef810000000083816129e1576129e0614243565b5b0492506020810190505b662386f26fc100008310612a1a57662386f26fc100008381612a1057612a0f614243565b5b0492506010810190505b6305f5e1008310612a43576305f5e1008381612a3957612a38614243565b5b0492506008810190505b6127108310612a68576127108381612a5e57612a5d614243565b5b0492506004810190505b60648310612a8b5760648381612a8157612a80614243565b5b0492506002810190505b600a8310612a9a576001810190505b80915050919050565b6040518060a0016040528060008152602001600073ffffffffffffffffffffffffffffffffffffffff168152602001600073ffffffffffffffffffffffffffffffffffffffff168152602001600081526020016000151581525090565b6000604051905090565b600080fd5b600080fd5b60007fffffffff0000000000000000000000000000000000000000000000000000000082169050919050565b612b4981612b14565b8114612b5457600080fd5b50565b600081359050612b6681612b40565b92915050565b600060208284031215612b8257612b81612b0a565b5b6000612b9084828501612b57565b91505092915050565b60008115159050919050565b612bae81612b99565b82525050565b6000602082019050612bc96000830184612ba5565b92915050565b600081519050919050565b600082825260208201905092915050565b60005b83811015612c09578082015181840152602081019050612bee565b60008484015250505050565b6000601f19601f8301169050919050565b6000612c3182612bcf565b612c3b8185612bda565b9350612c4b818560208601612beb565b612c5481612c15565b840191505092915050565b60006020820190508181036000830152612c798184612c26565b905092915050565b6000819050919050565b612c9481612c81565b8114612c9f57600080fd5b50565b600081359050612cb181612c8b565b92915050565b600060208284031215612ccd57612ccc612b0a565b5b6000612cdb84828501612ca2565b91505092915050565b600073ffffffffffffffffffffffffffffffffffffffff82169050919050565b6000612d0f82612ce4565b9050919050565b612d1f81612d04565b82525050565b6000602082019050612d3a6000830184612d16565b92915050565b612d4981612d04565b8114612d5457600080fd5b50565b600081359050612d6681612d40565b92915050565b60008060408385031215612d8357612d82612b0a565b5b6000612d9185828601612d57565b9250506020612da285828601612ca2565b9150509250929050565b612db581612c81565b82525050565b6000602082019050612dd06000830184612dac565b92915050565b600080600060608486031215612def57612dee612b0a565b5b6000612dfd86828701612d57565b9350506020612e0e86828701612d57565b9250506040612e1f86828701612ca2565b9150509250925092565b600060208284031215612e3f57612e3e612b0a565b5b6000612e4d84828501612d57565b91505092915050565b600080fd5b600080fd5b7f4e487b7100000000000000000000000000000000000000000000000000000000600052604160045260246000fd5b612e9882612c15565b810181811067ffffffffffffffff82111715612eb757612eb6612e60565b5b80604052505050565b6000612eca612b00565b9050612ed68282612e8f565b919050565b600067ffffffffffffffff821115612ef657612ef5612e60565b5b612eff82612c15565b9050602081019050919050565b82818337600083830152505050565b6000612f2e612f2984612edb565b612ec0565b905082815260208101848484011115612f4a57612f49612e5b565b5b612f55848285612f0c565b509392505050565b600082601f830112612f7257612f71612e56565b5b8135612f82848260208601612f1b565b91505092915050565b60008060408385031215612fa257612fa1612b0a565b5b600083013567ffffffffffffffff811115612fc057612fbf612b0f565b5b612fcc85828601612f5d565b9250506020612fdd85828601612ca2565b9150509250929050565b60008060408385031215612ffe57612ffd612b0a565b5b600061300c85828601612ca2565b925050602061301d85828601612ca2565b9150509250929050565b600081519050919050565b600082825260208201905092915050565b6000819050602082019050919050565b61305c81612c81565b82525050565b600061306d82612ce4565b9050919050565b61307d81613062565b82525050565b61308c81612b99565b82525050565b60a0820160008201516130a86000850182613053565b5060208201516130bb6020850182613074565b5060408201516130ce6040850182613074565b5060608201516130e16060850182613053565b5060808201516130f46080850182613083565b50505050565b60006131068383613092565b60a08301905092915050565b6000602082019050919050565b600061312a82613027565b6131348185613032565b935061313f83613043565b8060005b8381101561317057815161315788826130fa565b975061316283613112565b925050600181019050613143565b5085935050505092915050565b60006020820190508181036000830152613197818461311f565b905092915050565b6131a881612b99565b81146131b357600080fd5b50565b6000813590506131c58161319f565b92915050565b600080604083850312156131e2576131e1612b0a565b5b60006131f085828601612d57565b9250506020613201858286016131b6565b9150509250929050565b600067ffffffffffffffff82111561322657613225612e60565b5b61322f82612c15565b9050602081019050919050565b600061324f61324a8461320b565b612ec0565b90508281526020810184848401111561326b5761326a612e5b565b5b613276848285612f0c565b509392505050565b600082601f83011261329357613292612e56565b5b81356132a384826020860161323c565b91505092915050565b600080600080608085870312156132c6576132c5612b0a565b5b60006132d487828801612d57565b94505060206132e587828801612d57565b93505060406132f687828801612ca2565b925050606085013567ffffffffffffffff81111561331757613316612b0f565b5b6133238782880161327e565b91505092959194509250565b6000806040838503121561334657613345612b0a565b5b600061335485828601612d57565b925050602061336585828601612d57565b9150509250929050565b7f4e487b7100000000000000000000000000000000000000000000000000000000600052602260045260246000fd5b600060028204905060018216806133b657607f821691505b6020821081036133c9576133c861336f565b5b50919050565b7f4552433732313a20617070726f76616c20746f2063757272656e74206f776e6560008201527f7200000000000000000000000000000000000000000000000000000000000000602082015250565b600061342b602183612bda565b9150613436826133cf565b604082019050919050565b6000602082019050818103600083015261345a8161341e565b9050919050565b7f4552433732313a20617070726f76652063616c6c6572206973206e6f7420746f60008201527f6b656e206f776e6572206f7220617070726f76656420666f7220616c6c000000602082015250565b60006134bd603d83612bda565b91506134c882613461565b604082019050919050565b600060208201905081810360008301526134ec816134b0565b9050919050565b7f4552433732313a2063616c6c6572206973206e6f7420746f6b656e206f776e6560008201527f72206f7220617070726f76656400000000000000000000000000000000000000602082015250565b600061354f602d83612bda565b915061355a826134f3565b604082019050919050565b6000602082019050818103600083015261357e81613542565b9050919050565b7f4552433732313a20696e76616c696420746f6b656e2049440000000000000000600082015250565b60006135bb601883612bda565b91506135c682613585565b602082019050919050565b600060208201905081810360008301526135ea816135ae565b9050919050565b7f4552433732313a2061646472657373207a65726f206973206e6f74206120766160008201527f6c6964206f776e65720000000000000000000000000000000000000000000000602082015250565b600061364d602983612bda565b9150613658826135f1565b604082019050919050565b6000602082019050818103600083015261367c81613640565b9050919050565b7f596f7520617265206e6f7420746865206f776e65722c20796f7520646f6e742060008201527f68617665207065726d697373696f6e20746f20726553656c6c00000000000000602082015250565b60006136df603983612bda565b91506136ea82613683565b604082019050919050565b6000602082019050818103600083015261370e816136d2565b9050919050565b7f7072696365206d75737420626520657175616c20746f206c697374696e67207060008201527f7269636500000000000000000000000000000000000000000000000000000000602082015250565b6000613771602483612bda565b915061377c82613715565b604082019050919050565b600060208201905081810360008301526137a081613764565b9050919050565b7f4e487b7100000000000000000000000000000000000000000000000000000000600052601160045260246000fd5b60006137e182612c81565b91506137ec83612c81565b9250828203905081811115613804576138036137a7565b5b92915050565b600061381582612c81565b915061382083612c81565b9250828201905080821115613838576138376137a7565b5b92915050565b7f4e487b7100000000000000000000000000000000000000000000000000000000600052603260045260246000fd5b600061387882612c81565b91507fffffffffffffffffffffffffffffffffffffffffffffffffffffffffffffffff82036138aa576138a96137a7565b5b600182019050919050565b7f706c65617365207375626d697420657175616c20707269636520696e206f726460008201527f657220746f20636f6d706c65746520746865207061796d656e74000000000000602082015250565b6000613911603a83612bda565b915061391c826138b5565b604082019050919050565b6000602082019050818103600083015261394081613904565b9050919050565b7f4f6e6c79206f776e65722063616e206368616e676520746865206c697374696e60008201527f6720707269636500000000000000000000000000000000000000000000000000602082015250565b60006139a3602783612bda565b91506139ae82613947565b604082019050919050565b600060208201905081810360008301526139d281613996565b9050919050565b600081905092915050565b60006139ef82612bcf565b6139f981856139d9565b9350613a09818560208601612beb565b80840191505092915050565b6000613a2182856139e4565b9150613a2d82846139e4565b91508190509392505050565b7f4552433732313a207472616e736665722066726f6d20696e636f72726563742060008201527f6f776e6572000000000000000000000000000000000000000000000000000000602082015250565b6000613a95602583612bda565b9150613aa082613a39565b604082019050919050565b60006020820190508181036000830152613ac481613a88565b9050919050565b7f4552433732313a207472616e7366657220746f20746865207a65726f2061646460008201527f7265737300000000000000000000000000000000000000000000000000000000602082015250565b6000613b27602483612bda565b9150613b3282613acb565b604082019050919050565b60006020820190508181036000830152613b5681613b1a565b9050919050565b7f4552433732313a206d696e7420746f20746865207a65726f2061646472657373600082015250565b6000613b93602083612bda565b9150613b9e82613b5d565b602082019050919050565b60006020820190508181036000830152613bc281613b86565b9050919050565b7f4552433732313a20746f6b656e20616c7265616479206d696e74656400000000600082015250565b6000613bff601c83612bda565b9150613c0a82613bc9565b602082019050919050565b60006020820190508181036000830152613c2e81613bf2565b9050919050565b7f45524337323155524953746f726167653a2055524920736574206f66206e6f6e60008201527f6578697374656e7420746f6b656e000000000000000000000000000000000000602082015250565b6000613c91602e83612bda565b9150613c9c82613c35565b604082019050919050565b60006020820190508181036000830152613cc081613c84565b9050919050565b60008190508160005260206000209050919050565b60006020601f8301049050919050565b600082821b905092915050565b600060088302613d297fffffffffffffffffffffffffffffffffffffffffffffffffffffffffffffffff82613cec565b613d338683613cec565b95508019841693508086168417925050509392505050565b6000819050919050565b6000613d70613d6b613d6684612c81565b613d4b565b612c81565b9050919050565b6000819050919050565b613d8a83613d55565b613d9e613d9682613d77565b848454613cf9565b825550505050565b600090565b613db3613da6565b613dbe818484613d81565b505050565b5b81811015613de257613dd7600082613dab565b600181019050613dc4565b5050565b601f821115613e2757613df881613cc7565b613e0184613cdc565b81016020851015613e10578190505b613e24613e1c85613cdc565b830182613dc3565b50505b505050565b600082821c905092915050565b6000613e4a60001984600802613e2c565b1980831691505092915050565b6000613e638383613e39565b9150826002028217905092915050565b613e7c82612bcf565b67ffffffffffffffff811115613e9557613e94612e60565b5b613e9f825461339e565b613eaa828285613de6565b600060209050601f831160018114613edd5760008415613ecb578287015190505b613ed58582613e57565b865550613f3d565b601f198416613eeb86613cc7565b60005b82811015613f1357848901518255600182019150602085019450602081019050613eee565b86831015613f305784890151613f2c601f891682613e39565b8355505b6001600288020188555050505b505050505050565b7f5072696365206d7573742062652067726561746572207468616e207a65726f00600082015250565b6000613f7b601f83612bda565b9150613f8682613f45565b602082019050919050565b60006020820190508181036000830152613faa81613f6e565b9050919050565b6000608082019050613fc66000830187612d16565b613fd36020830186612d16565b613fe06040830185612dac565b613fed6060830184612ba5565b95945050505050565b7f436f756e7465723a2064656372656d656e74206f766572666c6f770000000000600082015250565b600061402c601b83612bda565b915061403782613ff6565b602082019050919050565b6000602082019050818103600083015261405b8161401f565b9050919050565b7f4552433732313a20617070726f766520746f2063616c6c657200000000000000600082015250565b6000614098601983612bda565b91506140a382614062565b602082019050919050565b600060208201905081810360008301526140c78161408b565b9050919050565b7f4552433732313a207472616e7366657220746f206e6f6e20455243373231526560008201527f63656976657220696d706c656d656e7465720000000000000000000000000000602082015250565b600061412a603283612bda565b9150614135826140ce565b604082019050919050565b600060208201905081810360008301526141598161411d565b9050919050565b600081519050919050565b600082825260208201905092915050565b600061418782614160565b614191818561416b565b93506141a1818560208601612beb565b6141aa81612c15565b840191505092915050565b60006080820190506141ca6000830187612d16565b6141d76020830186612d16565b6141e46040830185612dac565b81810360608301526141f6818461417c565b905095945050505050565b60008151905061421081612b40565b92915050565b60006020828403121561422c5761422b612b0a565b5b600061423a84828501614201565b91505092915050565b7f4e487b7100000000000000000000000000000000000000000000000000000000600052601260045260246000fdfea26469706673582212204a32cc8511978c1cce792dc40b4c77604c3b51bb3dde7378931ccb9ebf94a7a164736f6c634300081b0033",
  "linkReferences": {},
  "deployedLinkReferences": {}
}